:4000000000100020110000000D0500000D05000008B500F07DFAC04638B5134C23688022D20213432360182000F0EEFC22680F4B134023600E4A0F4B1A6010220E4B1A600E
:40004000802212060D4B1A60002525600C4A0D4B1A6009200C4900F07DFC092000F064FC0A4B1D6038BDC04600010B40FFFFFBFF0600008004010B400802024008010B403B
:400080001000008000000240190C00000C020B4010B572B6002410E02C4863001A195200821891881B195B001A5AC31858880004104300F08FFA0134E4B2012CECD9234929
:4000C000081C0C30103100F06BFAEE221202204B1A6099221F4B1A6099231B041E4A1360802109031D4A11601D4A13601D4A13601D4B187802220221014319701B4C217867
:400100003C2081432838014321701878162101431970174B1A601021164B19600439164B19601431154B196080214902144B1960D8210901134B1960134B1A603121134B94
:400140001960134B1A60FFF767FF10BDE00D00000C0001401000014000500F4004500F4020500F4030500F4000700F4001700F4000000440080004400C0004400002044005
:40018000080204400803044000040440080404401804044010B5064C2378002B07D1054B002B02D0044800E000BF0123237010BDE800002000000000540D000008B5084BC0
:4001C000002B03D00748084900E000BF07480368002B00D108BD064B002BFBD09847F9E700000000540D0000EC000020C80000200000000010B5642000F0E4FB00F0FEFAEC
:40020000164B1870164B1B78984223D0144C6078C043C0B2607000F0E5FA104B1B7823706378002B0BD10F4B01214022995400210132995401329954013299540AE0094BDB
:40024000022140229954002101329954013299540132995400F0DAFA10BDC04604010020CC0000202C01002070B5051C0E1C002403E0305D00F0FEF90134A542F9DC70BD8D
:4002800010B50C4C201C0C490231022200F046FDA01C0A498922520000F040FD00F0F8F9642000F08FFB96204000211CFFF7DCFF10BDC04678030020CC0000202C01002043
:4002C00070B5051C0E1C00F0C5F9002408E000F065FA8023DB019842F9D030550134A4B2AC42F4D370BDC04638B500F057FAC0B22D4B187005284ED12C4C0438211CFFF798
:40030000DFFF2378002B46D1284D95204000291CFFF7D6FF264C002323706370A370E37023716371A371E3712372291C1A31201C092200F0F3FC201C1E4900F000FD002834
:4003400029D14323194AD35C022B11D11A4B0221402299540021013299540132995401329954BC32154B5A70FF3000F03BFA12E0012B10D10022114B5A70002000F032FA35
:400380000D4B0121402299540021013299540132995401329954642000F014FB00F05AF90422074B1A6038BD75030020400200206C030020460100202C010020CC0000201D
:4003C000C00F064038B5444800F04CFA62B6FA20C00000F0F7FA00F01FF900F087FA3F4800F0F4F900F0C4F90028FBD03C4800F0EDF9FA24A400201C00F0E4FA394800F052
:40040000E5F9FA20C00000F0DDFA322000F0DAFA354800F0DBF9201C00F0D4FA201C00F0D1FA201C00F0CEFA00F014F900F030F92A4800F0CBF900F09BF90028FBD02848DE
:4004400000F0C4F9FA24A400201C00F0BBFA274800F0BCF9201C00F0B5FAFA20C00000F0B1FA00F035FA224C0523237000236370A370E370201C1A301E49072200F04EFCD4
:40048000201D1D490D2200F049FC201C32301B49072200F043FC01224023E25400220133E2540133E2540133E254043B0732E254134D281C13490231053A00F02FFCA81CC0
:4004C000211C8922520000F029FCFFF7D9FE0E4800F078FAF9E7C046F5010000800D0000840D0000880D0000AC0D0000B40D00002C010020C00D0000C80D0000D80D00004B
:4005000078030020CC00002010270000FEE7C04670B50F4E0F4D13E029686B68AC68002202E001C901C30432A242FAD1E868002202E0002102C304328242FAD11035013ECF
:40054000002EE9D100F0C4FBFFF73CFFFEE7C04601000000480E000008B500230AE0032B03D89A000A49505800E00A4899000A4A885001332F2BF2D9FFF78AFD0022074BC8
:400580001A608022D205116801230B43136008BD000000000D05000000000020C0000020F0B50025002711E0BB00C658F3B2FF22964308E06A008A181478A4195278227020
:4005C0000135013BDBB2002BF4D10137002FEBD0F0BDC04608B50A1C002100F0A8FB08BD08B50A2000F0A0F908BDC04608B500F0B5F808BD08B500F05BF808BD08B5054AB0
:400600001368802109060B431360FFF7E9FFFFF7EDFF08BD0000064008B5064B1B78002B04D1FFF7E7FF0122024B1A70FFF7E6FF08BDC04608010020014B18687047C04634
:4006400040030640024B1B680F2018407047C04608030640054B1A68802149020A431A601968034A0A401A607047C04604030640FFFFFEFF044B1B680F221340082BF9D01E
:40068000024B18607047C0460802064040020640054B1A68802149020A431A601968034A0A401A607047C04604020640FFFFFEFF10B5184A184B1A600024184B1C6001229B
:4006C000174B1A60174B18490B6007201749086017490C6017490A60174A1360174B1C60033000F02BF90A20032100F045F90A20134900F02FF9134B1C60134B1C60134B46
:400700001C60134B1C600422124B1A60124B1C6010BDC0460B00000200000640400006404800064007000080000306400403064010030640440006400002064004020640BF
:40074000BD0C0000880E0640C80E0640480F0640080F0640C80F0640880F064003490B68F0229343603A13430B6070471000014008B5FFF767FF002802D0FFF75DFF00E075
:400780000020054B1A68D8239B001A4203D01A1C014B1A60002008BDC00F064008B5FFF751FF002802D0FFF747FF01E0054B1868054A1368D82189000B4011601B02184322
:4007C00008BDC04640030640C00F064038B5051C002402E0FFF74EFF0134285D0028F9D138BDC04604490A68DF231A404001BF3B184010430860704700020440024B18685F
:400800008007C00F7047C04604000440034A10680223184010604008C0B2704710000440014B18647047C0460000002010B5041C00F070F8044A1368C0218B43A4011C4388
:40084000146000F06BF810BD00E400E00122014B1A60704700E100E00122014B1A60704780E100E010B5041CFFF7F6FF201CFFF7D7FF0320FFF7DAFFFFF7E8FF10BDC04664
:40088000014B98667047C0460000002010B5041C00F040F8044A1168044B0B40A4051C43146000F03BF810BD08E400E0FFFF3FFF8022D200014B1A607047C04600E100E077
:4008C0008022D200014B1A607047C04680E100E008B5FFF7F5FF0448FFF7D2FF0320FFF7D5FFFFF7E5FF08BDE902000008B5FFF7E7FF0248FFF7C4FF08BDC0460D05000016
:400900000230800804D0C0460138FDD1C046C046C0467047EFF3108072B6704780F310887047C046C046C0461F2318401E3B8340181C014B1860704700E100E01F2318406E
:400940001E3B8340181C014B1860704780E100E001BE704738B5041C0D1C1F2802D90020FFF7F6FFA400034B9C4664442068256038BDC0464000002070B5041C0E1E032E0C
:4009800002D90020FFF7E4FF1F2C02D90020FFF7DFFF03252540ED000635FFF7BBFFA408A400074B9C46644423680322AA409343AE40351C1D432560FFF7B0FF70BDC0464C
:4009C00000E400E010B5041C06E0084B1868FFF797FF074B9C46644480231B029C42F4D8024B58686043FFF78BFF10BDD00000200080FFFF08B5034B1B7A5843FFF780FFA8
:400A000008BDC046D0000020F0B557464E46C0B483B0041CFFF77EFF0190E71E2D2F74D83F4B1B78DBB2A34208D33E4B1B78DBB29A463D4B1B78DBB2994631E03B4B1B7809
:400A4000DBB2A34208D33A4B1B78DBB29A46394B1B78DBB2994623E0374B1B78DBB2A34208D3364B1B78DBB29A46354B1B78DBB2994615E0334B1B78DBB2A34208D3324BEC
:400A80001B78DBB29A46314B1B78DBB2994607E02F4B1B78DBB29A462E4B1B78DBB299462D4BDE5D2F2E09D92A2C07D919222B4B1A600520FFF724FF192503E0274B1D6839
:400AC0003F231D40AE4206D2234BDA5D234B1A600520FFF715FF1F4B9C4664442378DBB21F4A13601F4B52461A601F4B4A461A600520FFF77FFFAE420AD9174BDA5D174B64
:400B00001A600520FFF7FCFE02E00020FFF720FF0198FFF703FF03B00CBC91469A46F0BDC0F1FF0FC1F1FF0FC2F1FF0FC3F1FF0FC4F1FF0FC5F1FF0FC6F1FF0FC7F1FF0F8B
:400B4000C8F1FF0FC9F1FF0FCAF1FF0FCBF1FF0FCCF1FF0FCDF1FF0FF40D00002CFF0B4028FF0B401CFF0B4020FF0B40034B1868C0231B02184000D00120704700010B40E9
:400B800008B5FFF7C7FE044A1368C02109020B431360FFF7C3FE08BD00010B4010B5FFF7B9FE08490A68084B1A408024E40122430A600A6813408022120213430B60FFF713
:400BC000ADFE10BD00010B40FF3FFFFF70B5061CFFF7A0FE041CFFF7C9FF002803D0FFF7DDFF012500E000250848331C0340084A106808490840184310601368012D01D1B9
:400C0000FFF7BEFF201CFFF789FE70BD0404040010020B40FBFBFBFF10B5244B1B685B0715D5234B1B685B070ED5224B9969042001401F4C22688A4322609A6982439A61AE
:400C4000DB68002B00D098470420FFF7BFFF174B1B685B0518D5164B1B685B0510D5154B99698022D2001140114802688A4302609969114A0A409A611B69002B00D098470B
:400C80008020C000FFF7A2FF084B1B685B030CD5074B1B685B0304D5064B5B69002B00D098478020C002FFF791FF10BD10020B40E000002010010020FFFBFFFF08B5034BE7
:400CC0001B68002B00D0984708BDC0460C0100200E4B70B500251E1C0D4CE41AA410A54204D0AB00F35898470135F8E700F09AF8084B00251E1C084CE41AA410A54204D01D
:400D0000AB00F35898470135F8E770BD300E0000300E0000300E0000380E0000002310B5934203D0CC5CC4540133F9E710BD031C8218934202D019700133FAE770470278BC
:400D40000B78002A03D0013001319A42F7D0D01A704700001000000000000000017A5200027C0E011B0C0D001000000018000000CEFFFFFF140000000000000000000000A7
:400D80002B2B2B00610A000041542B4E4554503D5544502C5345525645522C393739392C302E302E302E300A0000000041542B5A0D0A000041542B454E544D0D0A0000005D
:400DC0003132333435360000E699BAE883BDE58FB0E781AF00000000E5BC80E585B3000000300F40000400400F40000402600F4002011101030405060708090A0B0C0E0FA0
:400E0000101112131415161718191B1C1D1E1F2021222325262728292A2B2E2F3031323334350000F8B5C046F8BC08BC9E467047BD01000059050000F8B5C046F8BC08BC1D
:400E40009E46704795010000580E0000C800002020000000C003000000000000FFFF02000000E02EC05D00001800000000366E01040404000000000000000000000000001C
:400E80000000000000000000000000000000000000000000000000000000000000000000000000000000000000000000000000000000000000000000000000000000000032
:400EC00000000000000000000000000000000000000000000000000000000000000000000000000000000000000000000000000000000000000000000000000000000000F2
:400F000000000000000000000000000000000000000000000000000000000000000000000000000000000000000000000000000000000000000000000000000000000000B1
:400F40000000000000000000000000000000000000000000000000000000000000000000000000000000000000000000000000000000000000000000000000000000000071
:0200000490303A
:02000000E664B4
:0200000490402A
:200000000000000000000000000000000000000000000000000000000000000000000000E0
:0200000490501A
:0C000000000204B61193110104BAF7F7D6
:0200000490600A
:0100000001FE
:00000001FF